:100000000C9434000C9451000C9451000C94510049
:100010000C9451000C9451000C9451000C9451001C
:100020000C9451000C9451000C9451000C9453000A
:100030000C9451000C9451000C9451000C945100FC
:100040000C9451000C9451000C9451000C945100EC
:100050000C9451000C9451000C9451000C945100DC
:100060000C9451000C94510011241FBECFEFD8E026
:10007000DEBFCDBF11E0A0E0B1E0E6EEF4E002C0EB
:1000800005900D92A230B107D9F721E0A2E0B1E0CE
:1000900001C01D92A831B207E1F70E94A6010C949D
:1000A00071020C9400001F920F920FB60F92112450
:1000B0002F933F934F935F936F937F938F939F9370
:1000C000AF93BF93EF93FF935C9A6091150170918A
:1000D0001601209113013091140189B1482F41700C
:1000E0008170809315011092160199B19270E92FD9
:1000F000F0E0F0931401E0931301672B51F04111EC
:1001000008C080910001882309F450C08150809379
:100110000001232B51F0911108C0809100018C3017
:1001200008F046C08F5F8093000180917A00806460
:1001300080937A0080917A0086FDFCCF80917900CF
:100140002091000190E0322F369502C09595879559
:100150003A95E2F7482F20FD02C04695480F40939C
:10016000120161E071E082E091E00E94DA0061E05A
:1001700081E00E94900182E091E00E949A015D9AE4
:100180008091120187BD5D985C98FF91EF91BF91BE
:10019000AF919F918F917F916F915F914F913F911F
:1001A0002F910F900FBE0F901F9018958BE0AFCF3F
:1001B00081E0B9CFFC01DB018D91811112C0443681
:1001C00090F480E2808390E24A30D8F0842F6AE095
:1001D0000E94650290E3980F26EF829F400D112444
:1001E00010C08193E9CF842F64E60E94650290E3FA
:1001F000980F90832CE9829F400D112490E34A30A0
:1002000028F79183405D42831382089591E0811124
:1002100001C090E0979599279795909317010895BD
:10022000982F92959F708F7020911701222311F0C3
:100230009068806895B995B9292F206425B925B9AA
:1002400095B995B985B985B9982F906495B995B93F
:1002500085B985B915B88AE68A95F1F700C0089581
:10026000982F92959F708F70282F206130911701E1
:10027000311117C0906195B995B9892F806485B9FE
:1002800085B995B995B925B925B9822F806485B905
:1002900085B925B925B915B885E88A95F1F7000023
:1002A00008959069282F2069E6CF81E00E9410010F
:1002B0008FE99FE00197F1F700C0000082E00E9403
:1002C00010018FE99FE00197F1F700C00000089549
:1002D00080911701826085B980911701826085B98C
:1002E00080911701826485B980911701826485B974
:1002F00080911701826085B980911701826085B96C
:1003000015B885E88A95F1F7000088E20E9410018F
:1003100086E00E9410018CE00E9410010C945501AF
:10032000813031F080EC61506F70862B0C9410019D
:1003300080E8F9CFCF93DF93EC018991811103C05D
:10034000DF91CF9108950E943001F7CF8FEF84B9EC
:100350008CEF87B98AB9809164008E7F80936400A6
:10036000809164008F7D8093640080916400877F1A
:100370008093640084B58F7B84BD84B5806884BD20
:1003800084B58F7E84BD84B58F7D84BD84B5816046
:1003900084BD84B5826084BD85B5877F85BD85B504
:1003A000816085BD85B58D7F85BD85B58B7F85BD1C
:1003B00085B58F7785BD85B58F7B85BD80918000A4
:1003C0008E7F80938000809180008D7F809380005D
:1003D000809180008F7B80938000809180008F7758
:1003E00080938000809180008F7E80938000809138
:1003F00080008F7D80938000809181008860809351
:100400008100809181008F7E8093810080918100A6
:100410008E7F809381008091810082608093810033
:10042000809181008B7F80938100809182008F7703
:1004300080938200809182008F7B809382008091E4
:100440006F00826080936F0088EE93E09093890044
:100450008093880080917A00806880937A008091F0
:100460007A008E7F80937A0080917A0082608093F8
:100470007A0080917A00846080937A0080917C0079
:100480008F7B80937C0080917C008F7780937C00B1
:1004900080917C00806280937C0080917C008160F0
:1004A00080937C0080917C008D7F80937C00809184
:1004B0007C008B7F80937C0080917C00877F809381
:1004C0007C000E9468017894FFCF991B79E004C0FA
:1004D000991F961708F0961B881F7A95C9F7809583
:0604E0000895F894FFCF1F
:0204E600010013
:00000001FF
