:100000000C9434000C9451000C9451000C94510049
:100010000C9451000C9451000C9451000C9451001C
:100020000C9451000C9451000C9451000C9451000C
:100030000C9451000C9451000C9451000C945100FC
:100040000C9451000C9451000C9451000C945100EC
:100050000C9451000C9451000C9451000C945100DC
:100060000C9451000C94510011241FBECFEFD8E026
:10007000DEBFCDBF11E0A0E0B1E0EAEFF8E002C0E2
:1000800005900D92AA30B107D9F721E0AAE0B1E0BE
:1000900001C01D92AB30B207E1F70E941F010C9422
:1000A0007B040C940000FC01DB018D91811112C0D6
:1000B000443690F480E2808390E24A30D8F0842F76
:1000C0006AE00E949E0190E3980F26EF829F400D08
:1000D000112410C08193E9CF842F64E60E949E0111
:1000E00090E3980F90832CE9829F400D112490E3B8
:1000F0004A3028F79183405D42831382089591E04E
:10010000811101C090E097959927979590930A01E6
:100110000895982F92959F708F7020910A01222345
:1001200011F09068806895B995B9292F206425B998
:1001300025B995B995B985B985B9982F906495B9C0
:1001400095B985B985B915B88AE68A95F1F700C0E1
:100150000895982F92959F708F70282F206130916D
:100160000A01311117C0906195B995B9892F806442
:1001700085B985B995B995B925B925B9822F806416
:1001800085B985B925B925B915B885E88A95F1F7F6
:10019000000008959069282F2069E6CF81E00E9431
:1001A00089008FE99FE00197F1F700C0000082E02D
:1001B0000E9489008FE99FE00197F1F700C00000DD
:1001C000089580910A01826085B980910A01826058
:1001D00085B980910A01826485B980910A0182649F
:1001E00085B980910A01826085B980910A01826097
:1001F00085B915B885E88A95F1F7000088E20E9474
:10020000890086E00E9489008CE00E9489000C949D
:10021000CE00813031F080EC61506F70862B0C94F1
:10022000890080E8F9CFCF93DF93EC0189918111A8
:1002300003C0DF91CF9108950E94A900F7CFCDB7F9
:10024000DEB760970FB6F894DEBF0FBECDBF8FEF5D
:1002500084B98CEF8AB90E94E1000E94CE001F92FF
:1002600081E08F9380E091E09F938F93CE01019680
:100270004C019F938F930E94AA01C4010E94130115
:1002800067E081E00E94090189B180FBCC24C0F8BD
:10029000D12C89B18270E82EF12C0F900F900F9025
:1002A0000F900F900F9011E0B82CA92C09B1902F4E
:1002B0009170017089B18270782E882E912CCD2892
:1002C000C1F0911116C0115009F41BE05D9A67E06E
:1002D00081E00E9409015C9A412F69E071E08B2D59
:1002E0009A2D0E9453005C988B2D9A2D0E94130129
:1002F0005D98EF28C9F0711017C01F5F1C3009F41A
:1003000011E05D9A67E081E00E9409015C9A412F4B
:1003100069E071E08B2D9A2D0E9453005C988B2D23
:100320009A2D0E9413015D9887EE93E00197F1F7F3
:1003300000C000007401C02ED12CB8CF991B79E009
:1003400004C0991F961708F0961B881F7A95C9F765
:1003500080950895AEE0B0E0E0EBF1E00C9452043B
:100360000D891E8986E08C831A8309838FEF9FE7AE
:100370009E838D83AE01475E5F4F6F89788DCE017E
:1003800001960E94CD012F813885020F131FF801BD
:1003900010822E96E4E00C946E04AFE0B0E0E3ED42
:1003A000F1E00C9444047C013B018A01DC011796C6
:1003B0001C921E92169713968C9181FFBEC19AE0F3
:1003C000292EFE0131964F01D70113969C91F3011E
:1003D00093FD859193FF81913F01882309F444C1E6
:1003E000853239F493FD859193FF81913F018532E8
:1003F00029F4B70190E00E94B603E6CFB12C412C5E
:10040000512CBFE1B51538F08B3209F188F48032F8
:1004100001F1833221F157FC3AC020ED280F2A3038
:1004200040F556FE1FC0B29C200D1124B22E06C00E
:100430008D3291F0803379F7689450F8F30193FD91
:10044000859193FF81913F018111DBCF20C068949A
:1004500051F8689452F8F2CF689453F8EFCF68944B
:1004600054F8ECCF429C200D1124422E689455F88C
:10047000E5CF8E3229F456FCF7C0689456F8DECFEB
:100480008C3619F4689457F8D9CF8836B9F2982F7A
:100490009F7D95549330C0F08336A1F18337C1F12D
:1004A000833509F05BC0D801CD90DD908D016B2DB7
:1004B00070E056FC02C06FEF7FEFC6010E94A00300
:1004C0005C01689457F80AC00C5F1F4FEFE3E983A3
:1004D000AA24A394B12C6401E89457F853FC04C0F7
:1004E0004A141B0409F018F5342CA114B10431F599
:1004F000332009F469CFB70180E290E00E94B6038F
:100500003A94F6CFD8018C9189830E5F1F4FE0CFCC
:10051000F801C190D1908F016B2D70E056FC02C0A4
:100520006FEF7FEFC6010E94AB035C01D5CFB7012F
:1005300080E290E00E94B6034A94D2CFF60157FCC5
:10054000859157FE81916F01B70190E00E94B6033B
:1005500031103A94B1E0AB1AB108C7CF843619F024
:10056000893609F071C0F80157FE67C06191719139
:10057000819191918F01E52DEF76DE2E97FF09C0D5
:1005800090958095709561957F4F8F4F9F4F6894A0
:10059000D7F82AE030E0A4010E94E603C82EC8186C
:1005A000AC2C5D2CD6FE0CC0E89450F8CB1440F473
:1005B000D4FE05C0D2FC03C05D2D5E7E552EAB2C53
:1005C00054FE93C0FE01EC0DF11D8081803309F0D3
:1005D00085C0652D697E562E752D7870372E53FC9B
:1005E00093C050FE8DC0BC2CA41410F4B40CBA18E7
:1005F00054FE90C0B70180E390E00E94B60352FE23
:1006000007C088E751FC88E590E0B7010E94B60377
:10061000CB1408F48BC0CA94D12C8FEFC81AD80A17
:10062000C80CD91CD6018E916D01B70190E00E94D3
:10063000B6038C149D04B1F75BCF61917191072EC5
:10064000000C880B990B96CFD52CE894D4F82AE0AF
:10065000853729F1F52DF97FDF2E8037A1F058F489
:100660008835A1F08F36D1F0F701868197812F96DA
:10067000E2E10C9460048837B9F7D4FE02C06894B4
:10068000D2F820E10CC06894D4F8F7CF54FE03C030
:100690002F2F2660D22E20E132E002C028E030E089
:1006A000F801D7FE15C041915191619171914C872C
:1006B0005D876E877F878F01A4016C857D858E8520
:1006C0009F850E94E603C82EC818E894D7F868CF23
:1006D00081919191AC0170E060E0E9CF52FC02C0E1
:1006E000A3947ACFA394A39477CF852D867809F429
:1006F00073CFF6CFB70180E290E00E94B603A394D7
:10070000A414C0F3312C74CF342C3A18A41408F478
:100710006FCFF8CF852D867809F47ACF8BE251FE22
:1007200080E257FC8DE2B70190E070CFB70180E323
:1007300090E00E94B603BA946BCF8FEF9FEF97CFF4
:10074000FC010590615070400110D8F7809590959C
:100750008E0F9F1F0895FC016150704001900110A1
:10076000D8F7809590958E0F9F1F08950F931F9334
:10077000CF93DF93182F092FEB018B8181FD09C0E7
:100780001FEF0FEF812F902FDF91CF911F910F91CE
:10079000089582FF14C02E813F818C819D8128178E
:1007A00039073CF4E881F981CF0101969983888368
:1007B00010838E819F8101969F838E83E3CFE8858E
:1007C000F985812F0995892BA1F3DACFFA01AA27A0
:1007D000283051F1203181F1E8946F936E7F6E5F84
:1007E0007F4F8F4F9F4FAF4FB1E03ED0B4E03CD032
:1007F000670F781F891F9A1FA11D680F791F8A1F15
:10080000911DA11D6A0F711D811D911DA11D20D07B
:1008100009F468943F912AE0269F11243019305D35
:100820003193DEF6CF010895462F4770405D419326
:10083000B3E00FD0C9F7F6CF462F4F70405D4A3373
:1008400018F0495D31FD4052419302D0A9F7EACF3B
:10085000B4E0A6959795879577956795BA95C9F76A
:1008600000976105710508959B01AC010A2E06945D
:100870005795479537952795BA95C9F7620F731F16
:10088000841F951FA01D08952F923F924F925F9253
:100890006F927F928F929F92AF92BF92CF92DF9290
:1008A000EF92FF920F931F93CF93DF93CDB7DEB7F5
:1008B000CA1BDB0B0FB6F894DEBF0FBECDBF099489
:1008C0002A88398848885F846E847D848C849B84E0
:1008D000AA84B984C884DF80EE80FD800C811B81EE
:1008E000AA81B981CE0FD11D0FB6F894DEBF0FBE1D
:0A08F000CDBFED010895F894FFCF8D
:0A08FA00417474656E3D25336900FA
:00000001FF
