:100000000C9434000C943E000C943E000C943E0082
:100010000C943E000C943E000C943E000C943E0068
:100020000C943E000C943E000C943E000C943E0058
:100030000C943E000C943E000C943E000C943E0048
:100040000C943E000C943E000C943E000C943E0038
:100050000C943E000C943E000C943E000C943E0028
:100060000C943E000C943E0011241FBECFEFD8E04C
:10007000DEBFCDBF0E9440000C945E000C940000D7
:100080008FEF84B98CEF8AB983E08BB982E085B9B0
:100090004899FECF499909C085B125B190E8299FBB
:1000A000900111248695822BF2CF000085B195B185
:1000B000880F991F9927991F892BE9CFF894FFCFB3
:00000001FF
