:100000000C9434000C943E000C943E000C943E0082
:100010000C943E000C943E000C943E000C943E0068
:100020000C943E000C943E000C943E000C943E0058
:100030000C943E000C943E000C943E000C943E0048
:100040000C943E000C943E000C943E000C943E0038
:100050000C943E000C943E000C943E000C943E0028
:100060000C943E000C943E0011241FBECFEFD8E04C
:10007000DEBFCDBF0E9446000C948E000C940000A1
:1000800086E396E000000197E9F708958FEF84B9C1
:100090008CEF8AB983E08BB982E085B921E030E04A
:1000A000CAEFD0E05C9A19B1612F6170117020978E
:1000B00069F4499923C085B145B190E8499FA001F1
:1000C00011248695842B85B9CAEFD0E0232B79F0D3
:1000D00061110DC049991AC085B125B190E8299FD9
:1000E000900111248695822B85B9CAEFD0E0219723
:1000F0000E9440005C98212F30E0D4CF85B195B1AB
:10010000880F991F9927991F892BDDCF85B195B14C
:10011000991F9927991F880F892BE6CFF894FFCF55
:00000001FF
