:100000000C9434000C9451000C9451000C94510049
:100010000C9451000C9451000C9451000C94240148
:100020000C9451000C9451000C9451000C94B800A5
:100030000C9451000C9451000C9451000C945100FC
:100040000C9451000C9451000C9451000C945100EC
:100050000C9451000C9451000C9451000C945100DC
:100060000C9451000C94510011241FBECFEFD8E026
:10007000DEBFCDBF11E0A0E0B1E0E0E7F7E002C0F5
:1000800005900D92AE30B107D9F721E0AEE0B1E0B6
:1000900001C01D92A334B207E1F70E9427020C941D
:1000A000B6030C94000090910E019032C8F4E091D8
:1000B0000301F09104018083809141018F5F80935F
:1000C0004101803271F48FE091E0909304018093BC
:1000D00003011092410180910E018F5F80930E0108
:1000E00008953196F0930401E0930301F4CF8091D9
:1000F0000E01882391F1E0910101F09102019081BC
:10010000892F82958F7097FF806185B9982F9064B1
:1001100095B985B9E0910101F091020190819F703C
:10012000807F892B85B9982F906495B985B915B8CA
:100130008091000181508093000181110FC08FE0F8
:1001400091E0909302018093010180E2809300018D
:1001500080910E01815080930E01089580910101DC
:100160009091020101969093020180930101F0CFDA
:100170001F920F920FB60F9211240F931F932F937C
:100180003F934F935F936F937F938F939F93AF931F
:10019000BF93CF93EF93FF935C9A80917A00806432
:1001A00080937A0080917A0086FDFCCF809179005F
:1001B0002091060190E0322F369502C095958795E3
:1001C0003A95E2F7C82F20FD02C0C695C80F80916E
:1001D00005018130D1F080910E0181112FC0C7BD82
:1001E0005C98FF91EF91CF91BF91AF919F918F91CB
:1001F0007F916F915F914F913F912F911F910F913F
:100200000F900FBE0F901F9018954C2F6DE071E06E
:1002100081E391E00E945B0180E80E94530001E3CA
:1002200011E01093300100932F01F80180818823A1
:1002300091F20E9453000F5F1F4FF3CF8091700027
:10024000826080937000CBCF1F920F920FB60F92F7
:1002500011242F933F934F935F936F937F938F93CB
:100260009F93AF93BF93EF93FF935D9A80910501A6
:10027000813059F40E94770080910E01811117C0DE
:10028000809170008D7F809370005D98FF91EF9159
:10029000BF91AF919F918F917F916F915F914F919E
:1002A0003F912F910F900FBE0F901F9018951092B5
:1002B000B200B99AEACFFC01DB018D91811112C025
:1002C000443690F480E2808390E24A30D8F0842F64
:1002D0006AE00E94AA0390E3980F26EF829F400DE8
:1002E000112410C08193E9CF842F64E60E94AA03F1
:1002F00090E3980F90832CE9829F400D112490E3A6
:100300004A3028F79183405D42831382089591E03B
:10031000811101C090E0979599279795909342019C
:100320000895982F92959F708F70209142012223FB
:1003300011F09068806895B995B9292F206425B986
:1003400025B995B995B985B985B9982F906495B9AE
:1003500095B985B985B915B88AE68A95F1F700C0CF
:100360000895982F92959F708F70282F206130915B
:100370004201311117C0906195B995B9892F8064F8
:1003800085B985B995B995B925B925B9822F806404
:1003900085B985B925B925B915B885E88A95F1F7E4
:1003A000000008959069282F2069E6CF81E00E941F
:1003B00091018FE99FE00197F1F700C0000082E012
:1003C0000E9491018FE99FE00197F1F700C00000C2
:1003D000089580914201826085B9809142018260D6
:1003E00085B980914201826485B98091420182641D
:1003F00085B980914201826085B980914201826015
:1004000085B915B885E88A95F1F7000088E20E9461
:10041000910186E00E9491018CE00E9491010C9470
:10042000D601813031F080EC61506F70862B0C94D6
:10043000910180E8F9CFCF93DF93EC01899181118D
:1004400003C0DF91CF9108950E94B101F7CFCDB7DE
:10045000DEB760970FB6F894DEBF0FBECDBFF8943D
:100460008FEF84B98CEF87B98AB983E080937E00DF
:10047000809164008E7F80936400809164008F7D02
:100480008093640080916400877F809364008091F2
:1004900064008F7B8093640084B58F7B84BD84B5BA
:1004A000806884BD84B58F7E84BD84B58F7D84BD16
:1004B00084B5816084BD84B5826084BD85B5877F45
:1004C00085BD85B5816085BD85B58D7F85BD85B5CB
:1004D0008B7F85BD85B58F7785BD85B58F7B85BDC8
:1004E00080916E008D7F80936E0017BC809180009C
:1004F0008E7F80938000809180008D7F809380002C
:10050000809180008F7B80938000809180008F7726
:1005100080938000809180008F7E80938000809106
:1005200080008F7D8093800080918100886080931F
:100530008100809181008F7E809381008091810075
:100540008E7F809381008091810082608093810002
:10055000809181008B7F80938100809182008F77D2
:1005600080938200809182008F7B809382008091B3
:100570006F00826080936F0088EE93E09093890013
:10058000809388008091B0008F7B8093B000809131
:10059000B0008F778093B0008091B0008F7E809301
:1005A000B0008091B0008F7D8093B0008091B0004A
:1005B0008E7F8093B0008091B00082608093B00005
:1005C0008091B100877F8093B1008091B1008E7FD0
:1005D0008093B1008091B10082608093B1008091DE
:1005E000B1008B7F8093B100809170008260809316
:1005F000700082E38093B30080917A0080688093DA
:100600007A0080917A008E7F80937A0080917A00C0
:10061000826080937A0080917A00846080937A006F
:1006200080917C008F7B80937C0080917C008F7711
:1006300080937C0080917C00806280937C0080911C
:100640007C00816080937C0080917C008D7F809312
:100650007C0080917C008B7F80937C0080917C006B
:10066000877F80937C000E94E9014091060167E04A
:1006700071E08E010F5F1F4FC8010E945B0161E0B6
:1006800082E00E941102C8010E941B02789430E0AF
:1006900020E050E040E0E02EB12EAA24A39489B1DE
:1006A000982F917080FBFF24F0F889B18270082F99
:1006B00010E0452B69F1911147C0909106019230ED
:1006C00028F1915090930601232B49F0811107C026
:1006D000809106018B3098F58F5F80930601109210
:1006E00005014091060167E071E08E2D9B2D0E946F
:1006F0005B0180EC0E945300CE2CDB2CF601819133
:100700006F0181111EC0A09205010CC09BE0DACFE1
:100710002115310511F08823D9F29111E0CF20176E
:100720003107E9F680910E01882329F0809170004D
:1007300082608093700098014F2D50E0B0CF81E02F
:10074000CCCF0E945300DACF2115310541F381113E
:10075000E6CFBECF991B79E004C0991F961708F029
:10076000961B881F7A95C9F780950895F894FFCF56
:0E077000200F010F010101417474656E3D0000
:00000001FF
