:100000000C9434000C9446000C9446000C9446006A
:100010000C9446000C9446000C9446000C94460048
:100020000C9446000C9446000C9446000C94460038
:100030000C9446000C9446000C9446000C94460028
:100040000C9446000C9446000C9446000C94460018
:100050000C9446000C9446000C9446000C94460008
:100060000C9446000C94460011241FBECFEFD8E03C
:10007000DEBFCDBF21E0A0E0B1E001C01D92A13004
:10008000B207E1F70E9414010C94AB010C9400003C
:10009000FC01DB018D91811112C0443690F480E2A5
:1000A000808390E24A30D8F0842F6AE00E949F015A
:1000B00090E3980F26EF829F400D112410C081938A
:1000C000E9CF842F64E60E949F0190E3980F90830C
:1000D0002CE9829F400D112490E34A3028F7918348
:1000E000405D42831382089591E0811101C090E048
:1000F000979599279795909300010895982F929539
:100100009F708F7020910001222311F09068806809
:1001100095B995B9292F206425B925B995B995B90F
:1001200085B985B9982F906495B995B985B985B980
:1001300015B88AE68A95F1F700C00895982F929530
:100140009F708F70282F206130910001311117C0EE
:10015000906195B995B9892F806485B985B995B9AC
:1001600095B925B925B9822F806485B985B925B996
:1001700025B915B885E88A95F1F7000008959069CA
:10018000282F2069E6CF81E00E947E008FE99FE062
:100190000197F1F700C0000082E00E947E008FE925
:1001A0009FE00197F1F700C00000089580910001E1
:1001B000826085B980910001826085B980910001DB
:1001C000826485B980910001826485B980910001C3
:1001D000826085B980910001826085B915B885E893
:1001E0008A95F1F7000088E20E947E0086E00E9476
:1001F0007E008CE00E947E000C94C300813031F0C0
:1002000080EC61506F70862B0C947E0080E8F9CFF3
:10021000CF93DF93EC018991811103C0DF91CF91DE
:1002200008950E949E00F7CF8FEF84B98CEF87B9B5
:100230008AB98FE380937E00809164008E7F8093E3
:10024000640080917C008F7B80937C0080917C0097
:100250008F7780937C0080917C00806280937C000B
:1002600080917C00816080937C0080917C008D7FF8
:1002700080937C0080917C008B7F80937C008091B8
:100280007C00877F80937C0080917A0080688093D7
:100290007A0080917A008E7F80937A0080917A0034
:1002A000826080937A0080917A00846080937A00E3
:1002B0000E94D6005A9A89B18170C82F80E0D82F49
:1002C00029B1227030E081E099B1592F51709170BD
:1002D00049B14270642F70E0CD2B29F0511103C059
:1002E000815009F48BE0232B31F0411104C08F5F62
:1002F0008C3009F481E020917A00206420937A0008
:1003000020917A0026FDFCCF2091790030E0482F23
:10031000469502C0359527954A95E2F7422F80FD14
:1003200002C04695420F45B9EBE4F4E03197F1F78E
:1003300000C000009B01C92FF0E0DF2FC5CF991B43
:1003400079E004C0991F961708F0961B881F7A95CC
:0A035000C9F780950895F894FFCFD7
:00000001FF
