:100000000C9434000C9451000C9451000C94510049
:100010000C9451000C9451000C9451000C949A01D2
:100020000C9451000C9451000C9451000C94160146
:100030000C9451000C9451000C9451000C945100FC
:100040000C9451000C9451000C94BE010C94550278
:100050000C9451000C9451000C9451000C945100DC
:100060000C9451000C94510011241FBECFEFD8E026
:10007000DEBFCDBF11E0A0E0B1E0EEE7F9E002C0E5
:1000800005900D92AA31B107D9F721E0AAE1B1E0BC
:1000900001C01D92A538B207E1F70E9449030C94F4
:1000A000BD040C940000909130019032E0F4E09196
:1000B0000801F0910901808380911D018F5F809379
:1000C0001D01803289F421E331E03093090120934E
:1000D000080110921D019F5F909330018091700084
:1000E00082608093700008953196F0930901E09347
:1000F0000801F1CF809130018823E9F1E0910601F8
:10010000F09107019081892F82958F7097FF806110
:1001100085B9982F906495B985B9E0910601F09161
:10012000070190819F70807F892B85B9982F9064FB
:1001300095B985B915B88091050181508093050165
:1001400081110FC081E391E0909307018093060134
:1001500080E28093050180913001815080933001CD
:1001600008958091060190910701019690930701EF
:1001700080930601F0CF8091700010927000089576
:10018000909163019032E0F4E0910301F091040159
:10019000808380911C018F5F80931C01803289F4E1
:1001A00024E631E0309304012093030110921C01F6
:1001B0009F5F909363018091C1008B6B8093C1001E
:1001C00008953196F0930401E0930301F1CF8091FB
:1001D0006301882339F1E0910101F09102018081EE
:1001E0008093C600809100018150809300018111AD
:1001F0000FC084E691E0909302018093010180E2B8
:100200008093000180916301815080936301089580
:1002100080910101909102010196909302018093D7
:100220000101F0CF83E98093C10008951F920F92DE
:100230000FB60F9211242F933F934F935F936F93B9
:100240007F938F939F93AF93BF93CF93DF93EF935E
:10025000FF9380917A00806480937A0080917A0085
:1002600086FDFCCF80911B018F5F80931B018091E5
:10027000790020910A0190E0322F369502C09595C1
:1002800087953A95E2F7482F20FD02C04695480F22
:1002900040931A0147BD61E171E080E291E00E9464
:1002A0007D0280E80E945300C0E2D1E0D0931F019C
:1002B000C0931E018881811131C080911B01843659
:1002C000D1F440911A016BE071E083E591E00E9466
:1002D0007D0283E591E090935201809351018DE07E
:1002E0000E94C000C0915101D091520188818111BA
:1002F00019C010921B01FF91EF91DF91CF91BF9137
:10030000AF919F918F917F916F915F914F913F91AD
:100310002F910F900FBE0F901F9018950E945300C1
:100320002196C4CF0E94C0002196D0935201C09361
:100330005101D8CF1F920F920FB60F9211242F9315
:100340003F934F935F936F937F938F939F93AF935D
:10035000BF93EF93FF930E947A00FF91EF91BF91BB
:10036000AF919F918F917F916F915F914F913F914D
:100370002F910F900FBE0F901F9018951F920F9204
:100380000FB60F9211242F933F934F935F936F9368
:100390007F938F939F93AF93BF93CF93DF93EF930D
:1003A000FF938091C00087FFFCCF8091C6008F7DB6
:1003B000843409F05FC080910A01823008F458C08B
:1003C000815080930A01809170001092700080919A
:1003D0006F0010926F0040910A0162E171E080E2CB
:1003E00091E00E947D0240910A0162E171E083E5A3
:1003F00091E00E947D028DE00E94C00080EC0E948E
:10040000530080E291E090931F0180931E0183E5E9
:1004100091E09093520180935101C0911E01D091BF
:100420001F018881811131C0C0915101D0915201C9
:100430008881811132C08091700082608093700049
:1004400080916F00826080936F00FF91EF91DF9148
:10045000CF91BF91AF919F918F917F916F915F915C
:100460004F913F912F910F900FBE0F901F901895B5
:100470008BE0A7CF853509F0A6CF80910A018B309C
:1004800010F48F5F9ECF81E09CCF0E945300219695
:10049000D0931F01C0931E01C0CF0E94C0002196BF
:1004A000D0935201C0935101BFCF1F920F920FB64C
:1004B0000F9211242F933F934F935F936F937F93EA
:1004C0008F939F93AF93BF93EF93FF938091C0005F
:1004D00085FFFCCF0E94E700FF91EF91BF91AF91A4
:1004E0009F918F917F916F915F914F913F912F914C
:1004F0000F900FBE0F901F901895FC01DB018D919E
:10050000811112C0443690F480E2808390E24A3038
:10051000D8F0842F6AE00E94B10490E3980F26EF90
:10052000829F400D112410C08193E9CF842F64E68F
:100530000E94B10490E3980F90832CE9829F400DB4
:10054000112490E34A3028F79183405D428313825F
:10055000089591E0811101C090E0979599279795B2
:10056000909384010895982F92959F708F70209199
:100570008401222311F09068806895B995B9292FDC
:10058000206425B925B995B995B985B985B9982F4C
:10059000906495B995B985B985B915B88AE68A95F3
:1005A000F1F700C00895982F92959F708F70282FB3
:1005B000206130918401311117C0906195B995B9CE
:1005C000892F806485B985B995B995B925B925B9BB
:1005D000822F806485B985B925B925B915B885E814
:1005E0008A95F1F7000008959069282F2069E6CFD9
:1005F00081E00E94B3028FE99FE00197F1F700C00C
:10060000000082E00E94B3028FE99FE00197F1F7BA
:1006100000C00000089580918401826085B98091B6
:100620008401826085B980918401826485B980915A
:100630008401826485B980918401826085B980914A
:100640008401826085B915B885E88A95F1F70000C4
:1006500088E20E94B30286E00E94B3028CE00E940E
:10066000B3020C94F802813031F080EC61506F706D
:10067000862B0C94B30280E8F9CFCF93DF93EC0183
:100680008991811103C0DF91CF9108950E94D30217
:10069000F7CFF8948FEF84B98CEF87B98AB983E0EC
:1006A00080937E00809164008E7F809364008091AF
:1006B00064008F7D8093640080916400877F8093C5
:1006C0006400809164008F7B8093640084B58F7B8D
:1006D00084BD84B5806884BD84B58F7E84BD84B5B7
:1006E0008F7D84BD84B5816084BD84B5826084BD06
:1006F00085B5877F85BD85B5816085BD85B58D7FD5
:1007000085BD85B58B7F85BD85B58F7785BD85B565
:100710008F7B85BD80916E008D7F80936E0017BCAE
:10072000809180008E7F80938000809180008D7FFB
:1007300080938000809180008F7B809380008091E7
:1007400080008F7780938000809180008F7E8093DF
:100750008000809180008F7D809380008091810057
:10076000886080938100809181008F7E80938100DA
:10077000809181008E7F80938100809181008260D2
:1007800080938100809181008B7F80938100809194
:1007900082008F7780938200809182008F7B80938C
:1007A000820080916F00826080936F0080E197E209
:1007B00090938900809388008091B0008F7B809314
:1007C000B0008091B0008F778093B0008091B0002E
:1007D0008F7E8093B0008091B0008F7D8093B000B9
:1007E0008091B0008E7F8093B0008091B0008260D5
:1007F0008093B0008091B100877F8093B100809199
:10080000B1008E7F8093B1008091B10082608093AF
:10081000B1008091B1008B7F8093B1008091700016
:1008200082608093700082E38093B30080917A00AD
:10083000806880937A0080917A008E7F80937A001E
:1008400080917A00826080937A0080917A0084603F
:1008500080937A0080917C008F7B80937C008091D4
:100860007C008F7780937C0080917C0080628093F5
:100870007C0080917C00816080937C0080917C0072
:100880008D7F80937C0080917C008B7F80937C00A7
:1008900080917C00877F80937C0083E38093C400F9
:1008A0001092C5008091C00080688093C000809144
:1008B000C00080628093C0008091C1008B7F8093D4
:1008C000C1008091C10088608093C1008091C10007
:1008D00080618093C1008091C10080628093C100DB
:1008E0008091C10080648093C1008091C1008068C4
:1008F0008093C1008091C20082608093C200809189
:10090000C20084608093C2008091C2008F7B80937C
:10091000C2008091C2008F778093C2008091C20094
:100920008F7E8093C2008091C2008F7D8093C20031
:100930008091C200877F8093C2000E940B03409188
:100940000A0162E171E080E291E00E947D0261E0D3
:1009500082E00E94330380E291E00E943D0378949C
:10096000FFCF991B79E004C0991F961708F0961BDA
:0E097000881F7A95C9F780950895F894FFCFF7
:10097E002064016401203101310101414443203DD5
:0A098E002000417474656E3D000006
:00000001FF
